:100000000C942A000C9447000C9447000C94410374
:100010000C9447000C9459000C9447000C94470032
:100020000C9447000C9447000C9447000C949F02DA
:100030000C94C0020C9447000C9447000C944700A9
:100040000C9447000C9447000C9447000C94120346
:100050000C94470011241FBECFE5D4E0DEBFCDBF16
:1000600010E0A0E6B0E0EAE0F5E102C005900D92F4
:10007000A03EB107D9F711E0A0EEB0E001C01D929B
:10008000AB33B107E1F70E94C9030C94830A0C94C7
:1000900000008E98969A8EB583608EBD8EB58F7B4C
:1000A0008EBD1092EA0089B7806289BF1092EB0082
:1000B00008951F920F920FB60F9211242F933F9322
:1000C0008F939F9326B537B58091E4009091E5001A
:1000D000281B390B86B597B59093E5008093E40013
:1000E0008EB590E489278EBD81E02435380710F065
:1000F0001092EA008091EA00882319F081E0809351
:10010000E0008091EA00882389F41092E2001092C6
:10011000E1001092E3008EB580648EBD8091EA000C
:100120008F5F8093EA0082E08093E0008091E0009E
:10013000813009F064C02637310510F41092E000D8
:1001400081E02435380710F01092E0008091E00043
:10015000813009F054C02C3B310528F08091EA0031
:100160008F5F8093EA008091EA00823008F442C0F9
:100170008091EA0080FD3EC08091E1009091E20014
:10018000880F991F9093E2008093E1000EB406FE61
:1001900005C081609093E2008093E1008EB580916C
:1001A000E3008F5F8093E3008D3020F18091EB00BE
:1001B0008823D9F42091E1003091E200822F8F73DF
:1001C0008093E900C901807C9770689415F8969532
:1001D00087951694E1F78093E80020703870832F9C
:1001E0008695869586958093E7001092E00081E0E1
:1001F0008093EB008091EA008F5F8093EA0080910A
:10020000E000882329F41092EA008EB58F7B8EBD22
:100210009F918F913F912F910F900FBE0F901F9044
:10022000189580FF02C0C19A01C0C19881FF02C029
:10023000C29A01C0C29882FF02C0C39A01C0C3988B
:1002400083FF02C0C49A0895C498089586B390E0CD
:10025000969587958170B2998260B3998460B499BC
:10026000886008951F93BC98BB98BA98B998AF9AC4
:10027000AE9A0E942601182F1295107FAE98AE9A62
:100280000E942601AE98812B1F910895AD980E947F
:10029000320108951F93182FBC9ABB9ABA9AB99A43
:1002A000AF98AE9A82958F700E941101AE98AE9A67
:1002B000812F0E941101AE980E94460187FDFCCF5C
:1002C0001F910895AD980E944A010895AD9A0E9429
:1002D0004A010895982F8058883008F49770892F24
:1002E0000E9466010895CF93DF93EC0108C0892F27
:1002F0008058883008F49770892F0E946601999180
:100300009923A9F7DF91CF910895CF93DF93EC0163
:100310000AC0892F8058883010F0892F02C0892F99
:1003200087700E946601FE0121969491992389F7B6
:10033000DF91CF9108951F93CF93DF93EB0190E06E
:10034000877090700896880F880F880F0E9462014E
:1003500010E089910E9466011F5F1830D1F7DF918C
:10036000CF911F9108950F931F93CF93DF938B012C
:1003700090E0877090700896880F880F880F0E9411
:100380006201C0E0D0E0F801EC0FFD1FE4918E2F78
:100390000E9466012196C830D105A9F7DF91CF915F
:1003A0001F910F910895813009F480E46058860F01
:1003B0000E946201089581E00E94620108958EE02A
:1003C0000E94620108958CE00E94620108950F93DB
:1003D0001F93BC9ABB9ABA9AB99AA59AA69AA79A59
:1003E000AD98AE98AF9880E092EA0197F1F7AD989A
:1003F000AF9880E30E94110187E49CE20197F1F736
:1004000080E30E94110104E111E0C8010197F1F7B6
:1004100080E20E941101C8010197F1F788E20E9471
:10042000620188E00E9462018CE00E94620186E025
:100430000E9462010E94DB011F910F9108950F93AA
:100440001F93CF93DF938B0190E087709070089695
:10045000880F880F880F0E946201C0E0D0E0C801B9
:100460008C0F9D1F0E94570A0E9466012196C8307A
:10047000D105A9F7DF91CF911F910F910895CF93E7
:10048000DF93EC0121960E94570A982F81508E3FEE
:1004900048F48F57883008F49770892F0E946601BE
:1004A000CE01EFCFDF91CF910895DF93CF93CDB7FA
:1004B000DEB761970FB6F894DEBF0FBECDBFBE01A9
:1004C0006F5F7F4F4AE050E00E94360A0E9473013E
:1004D00061960FB6F894DEBF0FBECDBFCF91DF910E
:1004E00008955F9BFECF8CB108955D9BFECF8CB9C4
:1004F00008959B01AC0160E07CE88AE090E00E94F6
:10050000140A2150304030BD29B988E98AB986E8FB
:1005100080BD089590910D0180911001981711F4FC
:1005200080E00895809110018F5F8F71809310019A
:10053000E0911001F0E0ED5EFE4F808108951F9282
:100540000F920FB60F9211248F939F93EF93FF9307
:100550009CB1E0910D01EF5FEF7180911001E81700
:1005600031F0E0930D01F0E0ED5EFE4F9083FF91DE
:10057000EF919F918F910F900FBE0F901F90189544
:100580001F920F920FB60F9211248F939F93EF93A8
:10059000FF9390910B0180910501981771F0809164
:1005A00005018F5F8F7080930501E0910501F0E0F8
:1005B000EB50FF4F80818CB901C05598FF91EF91AE
:1005C0009F918F910F900FBE0F901F901895282F1D
:1005D00090910B019F5F9F70809105019817E1F347
:1005E000E92FF0E0EB50FF4F208390930B01559AD9
:1005F0000895CF93DF93EC0102C00E94E702899136
:100600008823D9F7DF91CF91089527B197B1907FD3
:10061000922B982B97B9369A3699FECF24B135B1E3
:10062000C90108951F920F920FB60F9211248F9354
:100630009F939091E60080910701891710F0AC9A82
:1006400001C0AC988091F200891710F0979A01C010
:1006500097988091EC00891710F0939A01C09398B5
:100660008091EF00891710F0959A01C095989F5FCF
:100670009093E6009F918F910F900FBE0F901F9067
:1006800018951F920F920FB60F9211248F939F937C
:100690008091110190911201009729F00197909398
:1006A0001201809311018091090190910A01009734
:1006B00029F0019790930A01809309018091ED0040
:1006C0009091EE00009729F001979093EE008093AF
:1006D000ED008091F0009091F100009729F00197D2
:1006E0009093F1008093F00080910E0190910F01A2
:1006F000009729F0019790930F0180930E019F912D
:100700008F910F900FBE0F901F901895682F81E06A
:100710000E94D30180910601882319F080E690E0C1
:1007200002C082E690E00E9473018091080190E08F
:100730000E94550284E690E00E9473018091F400CB
:1007400090E00E94550286E690E00E9473010895B1
:100750000F931F93DF93CF93CDB7DEB761970FB69B
:10076000F894DEBF0FBECDBFAB018E010F5F1F4FF0
:10077000B8010E94360AC8010E94F90261960FB6BC
:10078000F894DEBF0FBECDBFCF91DF911F910F91C7
:1007900008952F923F925F926F927F928F929F92D5
:1007A000AF92BF92CF92DF92EF92FF920F931F937F
:1007B000DF93CF9300D0CDB7DEB78F9A84B38F612C
:1007C00084BB81B3886281BB8AB386608ABB87B1F0
:1007D000806C87B986B1826886B983B7886083BF29
:1007E00083B7836083BF82E28CBF84E08093EC0098
:1007F00086E08093EF0088EC809307018093F200FD
:1008000085B5886085BD85B5876085BD8CE683BD6F
:1008100089B7826889BF0E94E7010E94DF010E94B8
:100820004900789460E875E280E090E00E947902E7
:100830000E94DB018AE690E00E94730181E060E0A3
:100840000E94D30187E790E00E94730188EE93E055
:1008500024E131E0F9013197F1F70197D9F70E94CE
:10086000150980930C0181E060E070E00E94CC08E3
:1008700080E29EE424E131E0F9013197F1F701973C
:10088000D9F70E94DB0183E391E066E071E048E084
:1008900051E024EF30E00E947108882319F40E948F
:1008A000860308C081E060E00E94D30180E890E008
:1008B0000E94730180E197E224E131E0F901319770
:1008C000F1F70197D9F7FF24EE246CE2662E61E080
:1008D000762EDD24DA9458E7C52E48EC942E3FE0BE
:1008E000232E312C25E0522E8091ED009091EE00C8
:1008F000892B31F5F3947092EE006092ED00F0FCDC
:100900000DC00E94DB0186E890E00E94730181E047
:1009100061E00E94D30183E990E00CC00E94DB01FA
:100920008CE990E00E94730181E060E00E94D301B5
:1009300084EA90E00E94730123E1F21609F4FF2497
:100940008091EB00882309F487C18091E800882317
:1009500071F48091E900803151F484E190E090934A
:100960000A0180930901A89AAB98A99AAA98809144
:10097000E8008823B1F48091E9008B3391F4E3948B
:100980000E94DB0180E061E00E94D3018E2D90E0A7
:100990000E945502E0FC03C0D998DA9802C0D99AA7
:1009A000DA9A8091E800882371F48091E90080321E
:1009B00051F484E190E090930A0180930901A99891
:1009C000AA9AA89AAB988091E800882371F4809144
:1009D000E900813251F484E190E090930A01809320
:1009E0000901A99AAA98A898AB9A8091E80088234F
:1009F00071F48091E900813151F484E190E09093A9
:100A00000A0180930901A898AB9AA998AA9A8091A3
:100A1000E8008823D9F58091E9008930B9F50E9472
:100A2000DB018AE590E09093F1008093F0008091E3
:100A3000F0009091F1008A35910541F584EB90E04A
:100A40000E94730181E060E070E00E94CC08809118
:100A5000F0009091F100892BD1F70E94DB0183E334
:100A600091E066E071E048E051E024EF30E00E9460
:100A70007108882319F40E94860308C081E060E0B1
:100A80000E94D30180E890E00E9473018091E80009
:100A90008823E9F58091E9008130C9F584E00E945E
:100AA00005039A8389830E94DB0189819A810E94D0
:100AB000550280E065E00E94D30180E090E00E9452
:100AC00055028EE20E946A0184E690E0E981FA8193
:100AD000E89FB001E99F700DF89F700D112480E030
:100AE00090E024E630E040E050E00E94140ACA01A1
:100AF000B90124E630E040E050E00E94140A862F5D
:100B000090E00E94550287EB90E00E947301809173
:100B1000E800882381F48091E900823061F40F5F5E
:100B2000073008F007E00093EC000E94DB01802F03
:100B300090E00E9455028091E800882381F4809122
:100B4000E900853061F40150043008F404E00093BA
:100B5000EC000E94DB01802F90E00E945502809102
:100B6000E800882389F48091E900863069F43092A6
:100B700012012092110187E08093EF000E94DB01B7
:100B800087E090E00E9455028091E800882381F47C
:100B90008091E900843061F43092120120921101B9
:100BA0005092EF000E94DB0185E090E00E94550228
:100BB0008091E8008823B1F48091E900863391F4B4
:100BC000D0920701D092F2000E94DB0189EB90E005
:100BD0000E94730181E064E00E94D3018FEB90E0FA
:100BE0000E9473018091E8008823B1F48091E900AC
:100BF000823391F4909207019092F2000E94DB01FF
:100C000089EB90E00E94730181E064E00E94D301CF
:100C100083EC90E00E9473018091E8008823B1F496
:100C20008091E900843391F4C0920701C092F200F0
:100C30000E94DB0189EB90E00E94730181E064E097
:100C40000E94D3018AEC90E00E9473011092EB00A5
:100C5000D092E900D092E8008091110190911201A8
:100C6000892B19F486E08093EF008091090190911F
:100C70000A01892B21F4A998AA98A898AB98909179
:100C80000D0180911001981711F4E0E00CC08091E3
:100C900010018F5F8F7180931001E0911001F0E0DF
:100CA000ED5EFE4FE081E093F300E63509F01CCEE7
:100CB00081E60E94E7029AE5A92EB12C87E0882EF2
:100CC00016E090910D0180911001981711F4E0E069
:100CD0000CC0809110018F5F8F7180931001E091A3
:100CE0001001F0E0ED5EFE4FE081E093F300E334AD
:100CF00021F4A998AA98A89805C0E73529F4A998DD
:100D0000AA9AA89AAB984EC0E33529F4A99AAA9852
:100D1000A898AB9A47C0E13429F4A898AB9AA9984F
:100D2000AA9A40C0E43429F4A89AAB98A99AAA9840
:100D300039C0E037B9F5B0920F01A0920E01809151
:100D40000E0190910F018A35910561F581E060E017
:100D500070E00E94CC0880910E0190910F01892BC8
:100D6000D1F783E391E066E071E048E051E024EFE1
:100D700030E00E9471088823A9F48091060190E078
:100D80006AE070E00E94A8038091080190E06AE0A8
:100D900070E00E94A8038091F40090E062E070E0AF
:100DA0000E94A8038091F300893461F40F5F06303C
:100DB00008F005E00093EC000E94DB01802F90E03A
:100DC0000E9455028091F3008B3461F4015003308E
:100DD00008F403E00093EC000E94DB01802F90E018
:100DE0000E9455028091F3008A3461F4309212011E
:100DF000209211015092EF000E94DB0185E090E00B
:100E00000E9455028091F3008C3661F430921201F9
:100E1000209211018092EF000E94DB0187E090E0B8
:100E20000E9455028091F300823491F4D092070120
:100E3000D092F2000E94DB0189EB90E00E947301E6
:100E400081E064E00E94D3018FEB90E00E94730187
:100E50008091F3008E3491F4909207019092F20009
:100E60000E94DB0189EB90E00E94730181E064E065
:100E70000E94D30183EC90E00E9473018091F30003
:100E80008D3491F4C0920701C092F2000E94DB0100
:100E900089EB90E00E94730181E064E00E94D3013D
:100EA0008AEC90E00E9473018091F300853409F48C
:100EB0001BCD8091EB00882309F016CD80911101A4
:100EC00090911201892B09F0FCCE1093EF00F9CE1E
:100ED000DC0120E040E050E098E115C0FD01E40FA6
:100EE000F51FE08138E08E2F8227F82FF17080FD0A
:100EF00029272695F13009F42068315011F0E69544
:100F0000F2CF4F5F5F4F4617570741F7822F089583
:100F1000AF92BF92DF92EF92FF920F931F93DF93F6
:100F2000CF93CDB7DEB760970FB6F894DEBF0FBE94
:100F3000CDBFD82E7A015901DE011196EFECF0E019
:100F400080E101900D928150E1F7FB018081482FF3
:100F500050E0918180E0482B592BF0E1DF1679F4C5
:100F6000CA018E7F33E0880F991F3A95E1F7FB01A4
:100F700026814CE050E0421B5109480F591F57FF92
:100F800007C081E0F7018083509541955F4F02C013
:100F9000F7011082F8E2DF1699F4FB018481682FD3
:100FA00070E0CB01807690708036910549F066FF45
:100FB00002C04E7F05C065FF02C04C7F01C0487F64
:100FC000CA0124E0969587952A95E1F7F50180837B
:100FD000842F8F70FE01E80FF11D8181F80180835D
:100FE00080E060960FB6F894DEBF0FBECDBFCF9104
:100FF000DF911F910F91FF90EF90DF90BF90AF9026
:101000000895882319F0709561957F4F442319F056
:10101000309521953F4F621773071CF44FEF5FEF38
:1010200007C040E050E02617370714F441E050E0D5
:10103000CA0108957F928F929F92AF92BF92CF92F2
:10104000DF92EF92FF920F931F93DF93CF93CDB771
:10105000DEB729970FB6F894DEBF0FBECDBF782E4E
:101060006B015A0149018EEB60E070E00E94F509C6
:101070008E010F5F1F4F4AE0E42EF12CEC0EFD1E97
:101080000E94A509F80181938F01EE15FF05C1F7B4
:101090007E010894E11CF11CC70169E070E00E9428
:1010A0006807882311F083E008C0872DB701A601E7
:1010B000950184010E94880780E029960FB6F89474
:1010C000DEBF0FBECDBFCF91DF911F910F91FF907B
:1010D000EF90DF90CF90BF90AF909F908F907F90D8
:1010E00008956F927F928F929F92AF92BF92CF920C
:1010F000DF92EF92FF920F931F93DF93CF93CDB7C1
:10110000DEB729970FB6F894DEBF0FBECDBF6C01D6
:101110005B014A0139010E9468098EEBB6010E9409
:10112000F5098E010F5F1F4F5AE0E52EF12CEC0EF2
:10113000FD1E0E94A509F80181938F01EE15FF05A0
:10114000C1F77E010894E11CF11CC70169E070E061
:101150000E946807882311F083E009C0F6018081AE
:10116000B701A501940183010E94880780E02996B8
:101170000FB6F894DEBF0FBECDBFCF91DF911F91A8
:101180000F91FF90EF90DF90CF90BF90AF909F9026
:101190008F907F906F9008951F93CF93DF93182FB8
:1011A000EB010E9468090E945F09882311F482E024
:1011B00009C084E4BE010E94F509113011F00E94BB
:1011C000620980E0DF91CF911F9108950F931F93E3
:1011D0008C010E94680984EBB8010E94F50981E046
:1011E0000E948109182F0E946809111111E0812FB6
:1011F0001F910F9108950F931F93CF93DF938C014D
:10120000EB01F8018081BE010E94A909F8018083E9
:1012100081508D3F28F48881883211F0803189F720
:10122000DF91CF911F910F910895CF92DF92EF92AE
:10123000FF921F93DF93CF93CDB7DEB729970FB6F9
:10124000F894DEBF0FBECDBF8FEF898310E062E060
:10125000E62EF12CEC0EFD1E6E010894C11CD11C73
:1012600019C0C601B7010E94FB0889818F3FC1F0F8
:101270008E3FB1F020E030E0F901ED5CFE4FD70188
:10128000A20FB31F8C9180832F5F3F4F11E0283056
:10129000310591F78981882319F0112311F311E0A9
:1012A000812F29960FB6F894DEBF0FBECDBFCF9128
:1012B000DF911F91FF90EF90DF90CF90089589B359
:1012C00088700895DB9AD39A0895DB98D39808958F
:1012D000DB98D39A8FE295E00197F1F78FB7F894F6
:1012E000D39893EF9A95F1F729B38FBF88E794E0ED
:1012F0000197F1F7CB9902C081E00895822F8870A1
:1013000008952FB7F894D39A93E09A95F1F7811145
:10131000D39897E39A95F1F7CB9B80E095EA9A955D
:10132000F1F7D3982FBF08950F931F93182F08E05C
:10133000812F81700E9481091695811110680150DA
:10134000B9F7812F1F910F9108958FEF0E94940993
:101350000895DF92EF92FF920F931F93CF93DF9345
:10136000E82EEB010E9468098823A1F580EF0E9416
:10137000940980E4FF24182F98EFD92ED80E81E02D
:101380000E948109082F81E00E948109882329F0A9
:10139000002371F08EEFF82E1FC0002349F41E15B4
:1013A00028F0888180FF04C0E11611F0F12E01E0E1
:1013B000802F0E948109888186958883002311F0FF
:1013C0008068888311501D15D1F6112329F02196CC
:1013D000812FD1CFFF24FA948F2DDF91CF911F91D0
:1013E0000F91FF90EF90DF9008950F931F93CF938D
:1013F000DF93082FEB010E946809209751F085E5E3
:101400000E94940918E089910E9494091150D9F71B
:1014100003C08CEC0E949409802F0E949409DF91F4
:10142000CF911F910F910895A1E21A2EAA1BBB1B09
:10143000FD010DC0AA1FBB1FEE1FFF1FA217B307A0
:10144000E407F50720F0A21BB30BE40BF50B661FB6
:10145000771F881F991F1A9469F76095709580957A
:1014600090959B01AC01BD01CF010895FB019F0147
:10147000E8944230C4F04532B4F44A3029F497FB82
:101480001EF4909581959F4F642F77270E946F0AD5
:10149000805D8A330CF0895D8193CB010097A1F7C1
:1014A00016F45DE251931082C9010C945F0AE19930
:1014B000FECF9FBB8EBBE09A99278DB30895DC01C8
:1014C000FC01672F71917723E1F7329704C07C917B
:1014D0006D9370836291AE17BF07C8F30895AA1B7E
:1014E000BB1B51E107C0AA1FBB1FA617B70710F00F
:1014F000A61BB70B881F991F5A95A9F78095909541
:0A150000BC01CD010895F894FFCF5F
:10150A002D0020002E0080432000504F4C495445A6
:10151A0043484E494B41004C5542454C534B4100C0
:10152A006572726F720050524F4D4F544F522044A1
:10153A00522E004D2E4255435A414A0053545544A7
:10154A00454E5400536B696261204B727A79737A03
:10155A00746F66004F4B0056007370656564004DEA
:10156A004158004D4944444C4500534C4F570000E4
:10157A000101020203040405060607070809090017
:00000001FF
